{
  "transactions": [
    {
      "hash": "0xeb289d2584050fce91f33c3208dfbcff6d2e89a3a62ecedeb5b3cf301471da43",
      "transactionType": "CALL",
      "contractName": null,
      "contractAddress": "0xe7f1725e7734ce288f8367e1bb143e90bb3f0512",
      "function": "mint(address,uint256)",
      "arguments": [
        "0xf39Fd6e51aad88F6F4ce6aB8827279cffFb92266",
        "10000000000000000"
      ],
      "transaction": {
        "from": "0xf39fd6e51aad88f6f4ce6ab8827279cfffb92266",
        "to": "0xe7f1725e7734ce288f8367e1bb143e90bb3f0512",
        "value": "0x0",
        "input": "0x40c10f19000000000000000000000000f39fd6e51aad88f6f4ce6ab8827279cfffb92266000000000000000000000000000000000000000000000000002386f26fc10000",
        "nonce": "0xc",
        "chainId": "0x7a69"
      },
      "additionalContracts": [],
      "isFixedGasLimit": false
    },
    {
      "hash": "0xf58ad08722f562e5b26119a01ace15ef9f3cdae21f46f047b4acfde369739df9",
      "transactionType": "CALL",
      "contractName": null,
      "contractAddress": "0xe7f1725e7734ce288f8367e1bb143e90bb3f0512",
      "function": "approve(address,uint256)",
      "arguments": [
        "0x5FbDB2315678afecb367f032d93F642f64180aa3",
        "10000000000000000"
      ],
      "transaction": {
        "from": "0xf39fd6e51aad88f6f4ce6ab8827279cfffb92266",
        "to": "0xe7f1725e7734ce288f8367e1bb143e90bb3f0512",
        "value": "0x0",
        "input": "0x095ea7b30000000000000000000000005fbdb2315678afecb367f032d93f642f64180aa3000000000000000000000000000000000000000000000000002386f26fc10000",
        "nonce": "0xd",
        "chainId": "0x7a69"
      },
      "additionalContracts": [],
      "isFixedGasLimit": false
    },
    {
      "hash": "0x7d6ca2736a2f0869b2b451d6eef89abe7a2b9b354da2ebc281e86a11f6b3a0ee",
      "transactionType": "CALL",
      "contractName": null,
      "contractAddress": "0x5fbdb2315678afecb367f032d93f642f64180aa3",
      "function": "postIntent((address,address,uint256,address,uint256,uint256,uint256,uint256,uint256),bytes)",
      "arguments": [
        "(0xf39Fd6e51aad88F6F4ce6aB8827279cffFb92266, 0xe7f1725E7734CE288F8367e1Bb143E90bb3F0512, 10000000000000000, 0x9fE46736679d2D9a65F0992F2272dE9f3c7fa6e0, 19000000, 1000000, 12, 0, 1776808478)",
        "0x8e225c371a2b3c299365811621a299b589c5ceba174185a92997909fbe2ceb980ed5b2abec9cce726610cc392c4e7e8fee41663cfadec23675867adf9860131b1b"
      ],
      "transaction": {
        "from": "0xf39fd6e51aad88f6f4ce6ab8827279cfffb92266",
        "to": "0x5fbdb2315678afecb367f032d93f642f64180aa3",
        "value": "0x0",
        "input": "0x1e18f8ce000000000000000000000000f39fd6e51aad88f6f4ce6ab8827279cfffb92266000000000000000000000000e7f1725e7734ce288f8367e1bb143e90bb3f0512000000000000000000000000000000000000000000000000002386f26fc100000000000000000000000000009fe46736679d2d9a65f0992f2272de9f3c7fa6e0000000000000000000000000000000000000000000000000000000000121eac000000000000000000000000000000000000000000000000000000000000f4240000000000000000000000000000000000000000000000000000000000000000c00000000000000000000000000000000000000000000000000000000000000000000000000000000000000000000000000000000000000000000000069e7f21e000000000000000000000000000000000000000000000000000000000000014000000000000000000000000000000000000000000000000000000000000000418e225c371a2b3c299365811621a299b589c5ceba174185a92997909fbe2ceb980ed5b2abec9cce726610cc392c4e7e8fee41663cfadec23675867adf9860131b1b00000000000000000000000000000000000000000000000000000000000000",
        "nonce": "0xe",
        "chainId": "0x7a69"
      },
      "additionalContracts": [],
      "isFixedGasLimit": false
    },
    {
      "hash": "0xe83987e3a07ea51735ee03238988793516910b90bc0140319f5833947b2e2297",
      "transactionType": "CALL",
      "contractName": null,
      "contractAddress": "0x5fbdb2315678afecb367f032d93f642f64180aa3",
      "function": "bidOnIntent(bytes32,uint256,uint256,address,bytes)",
      "arguments": [
        "0xfb344b369177919bf009b37fca04be6391cc34ab93b8a182cf85e487c32fbb50",
        "20000000",
        "500000",
        "0xDc64a140Aa3E981100a9becA4E685f962f0cF6C9",
        "0x6e81221c000000000000000000000000e7f1725e7734ce288f8367e1bb143e90bb3f05120000000000000000000000009fe46736679d2d9a65f0992f2272de9f3c7fa6e0000000000000000000000000000000000000000000000000002386f26fc10000000000000000000000000000a16e02e87b7454126e5e10d957a927a7f5b5d2be"
      ],
      "transaction": {
        "from": "0x70997970c51812dc3a010c7d01b50e0d17dc79c8",
        "to": "0x5fbdb2315678afecb367f032d93f642f64180aa3",
        "value": "0x0",
        "input": "0x19f62691fb344b369177919bf009b37fca04be6391cc34ab93b8a182cf85e487c32fbb500000000000000000000000000000000000000000000000000000000001312d00000000000000000000000000000000000000000000000000000000000007a120000000000000000000000000dc64a140aa3e981100a9beca4e685f962f0cf6c900000000000000000000000000000000000000000000000000000000000000a000000000000000000000000000000000000000000000000000000000000000846e81221c000000000000000000000000e7f1725e7734ce288f8367e1bb143e90bb3f05120000000000000000000000009fe46736679d2d9a65f0992f2272de9f3c7fa6e0000000000000000000000000000000000000000000000000002386f26fc10000000000000000000000000000a16e02e87b7454126e5e10d957a927a7f5b5d2be00000000000000000000000000000000000000000000000000000000",
        "nonce": "0x0",
        "chainId": "0x7a69"
      },
      "additionalContracts": [],
      "isFixedGasLimit": false
    },
    {
      "hash": null,
      "transactionType": "CALL",
      "contractName": null,
      "contractAddress": "0x5fbdb2315678afecb367f032d93f642f64180aa3",
      "function": "settle(bytes32)",
      "arguments": [
        "0xfb344b369177919bf009b37fca04be6391cc34ab93b8a182cf85e487c32fbb50"
      ],
      "transaction": {
        "from": "0x70997970c51812dc3a010c7d01b50e0d17dc79c8",
        "to": "0x5fbdb2315678afecb367f032d93f642f64180aa3",
        "value": "0x0",
        "input": "0x987757ddfb344b369177919bf009b37fca04be6391cc34ab93b8a182cf85e487c32fbb50",
        "nonce": "0x1",
        "chainId": "0x7a69"
      },
      "additionalContracts": [],
      "isFixedGasLimit": false
    }
  ],
  "receipts": [
    {
      "status": "0x1",
      "cumulativeGasUsed": "0x859c",
      "logs": [
        {
          "address": "0xe7f1725e7734ce288f8367e1bb143e90bb3f0512",
          "topics": [
            "0xddf252ad1be2c89b69c2b068fc378daa952ba7f163c4a11628f55a4df523b3ef",
            "0x0000000000000000000000000000000000000000000000000000000000000000",
            "0x000000000000000000000000f39fd6e51aad88f6f4ce6ab8827279cfffb92266"
          ],
          "data": "0x000000000000000000000000000000000000000000000000002386f26fc10000",
          "blockHash": "0x74756d27a02ee07c28163b00b296ab1ee1ac5a16b4cface6d7e818d1f6e2d657",
          "blockNumber": "0x5",
          "blockTimestamp": "0x69e7e410",
          "transactionHash": "0xeb289d2584050fce91f33c3208dfbcff6d2e89a3a62ecedeb5b3cf301471da43",
          "transactionIndex": "0x0",
          "logIndex": "0x0",
          "removed": false
        }
      ],
      "logsBloom": "0x00000000000000000000000000000000000000000000000000000000000000000000000000000000000000000000000010000000000000000000000000000000000000000000000000000008000000000000000000000000000000000000000000000000020000000000000100000800000000000000000000000010000000000000000000000000000000000000000000000000000000000000000000000000000000000000000000000000000000000000000000000000000000000000000000000002000000200000000000001000000000002000000000000000000020000000000000000000000000000000000000000000000000800000000000000000",
      "type": "0x2",
      "transactionHash": "0xeb289d2584050fce91f33c3208dfbcff6d2e89a3a62ecedeb5b3cf301471da43",
      "transactionIndex": "0x0",
      "blockHash": "0x74756d27a02ee07c28163b00b296ab1ee1ac5a16b4cface6d7e818d1f6e2d657",
      "blockNumber": "0x5",
      "gasUsed": "0x859c",
      "effectiveGasPrice": "0x24cc8bd8",
      "blobGasPrice": "0x1",
      "from": "0xf39fd6e51aad88f6f4ce6ab8827279cfffb92266",
      "to": "0xe7f1725e7734ce288f8367e1bb143e90bb3f0512",
      "contractAddress": null
    },
    {
      "status": "0x1",
      "cumulativeGasUsed": "0xb513",
      "logs": [
        {
          "address": "0xe7f1725e7734ce288f8367e1bb143e90bb3f0512",
          "topics": [
            "0x8c5be1e5ebec7d5bd14f71427d1e84f3dd0314c0f7b2291e5b200ac8c7c3b925",
            "0x000000000000000000000000f39fd6e51aad88f6f4ce6ab8827279cfffb92266",
            "0x0000000000000000000000005fbdb2315678afecb367f032d93f642f64180aa3"
          ],
          "data": "0x000000000000000000000000000000000000000000000000002386f26fc10000",
          "blockHash": "0xc82388274e6b8cb87ad20a61577c5d2524272c914bbbffd5fc9d402569ebc681",
          "blockNumber": "0x6",
          "blockTimestamp": "0x69e7e410",
          "transactionHash": "0xf58ad08722f562e5b26119a01ace15ef9f3cdae21f46f047b4acfde369739df9",
          "transactionIndex": "0x0",
          "logIndex": "0x0",
          "removed": false
        }
      ],
      "logsBloom": "0x00000000000000000000000000000000000000000000000000000000000000000000000000000000000000000000000010000000000000000000000000200000000000000000000000000000000000000000000000000000000000000000000000000000000000000000000100800000000004000000000000000000000000000000000000000000000000000000000000000000000000000000000000000000020000000000000000000000000000000000000000000000000000000000000000000000000000200000000000001000000000002008000000000000000000000010000000000000000000000000000000000000000000800000000000000000",
      "type": "0x2",
      "transactionHash": "0xf58ad08722f562e5b26119a01ace15ef9f3cdae21f46f047b4acfde369739df9",
      "transactionIndex": "0x0",
      "blockHash": "0xc82388274e6b8cb87ad20a61577c5d2524272c914bbbffd5fc9d402569ebc681",
      "blockNumber": "0x6",
      "gasUsed": "0xb513",
      "effectiveGasPrice": "0x2035a9c5",
      "blobGasPrice": "0x1",
      "from": "0xf39fd6e51aad88f6f4ce6ab8827279cfffb92266",
      "to": "0xe7f1725e7734ce288f8367e1bb143e90bb3f0512",
      "contractAddress": null
    },
    {
      "status": "0x1",
      "cumulativeGasUsed": "0x40456",
      "logs": [
        {
          "address": "0x5fbdb2315678afecb367f032d93f642f64180aa3",
          "topics": [
            "0xe8a5f0d309e9a941e4ca691c6fed8afbfa8a437c3ecedb6f7dda5a897ec2ecdb",
            "0xfb344b369177919bf009b37fca04be6391cc34ab93b8a182cf85e487c32fbb50",
            "0x000000000000000000000000f39fd6e51aad88f6f4ce6ab8827279cfffb92266",
            "0x000000000000000000000000e7f1725e7734ce288f8367e1bb143e90bb3f0512"
          ],
          "data": "0x0000000000000000000000009fe46736679d2d9a65f0992f2272de9f3c7fa6e0000000000000000000000000000000000000000000000000002386f26fc10000000000000000000000000000000000000000000000000000000000000121eac00000000000000000000000000000000000000000000000000000000000000013",
          "blockHash": "0xcff169b116c67a6f83f1aa4cc03c367ca93f2e41cbf56ba743ea4464e53f7c43",
          "blockNumber": "0x7",
          "blockTimestamp": "0x69e7e410",
          "transactionHash": "0x7d6ca2736a2f0869b2b451d6eef89abe7a2b9b354da2ebc281e86a11f6b3a0ee",
          "transactionIndex": "0x0",
          "logIndex": "0x0",
          "removed": false
        }
      ],
      "logsBloom": "0x00000000000000000400000000000000000000000000000000000000000000000000000000000000000000000000000000000000000000000000000000000000000000000000000000000400000000000000000000000000000000000000000000000040000000000000000100000000000000000000000000000004000000000000000000000000000000000000000000000000000000000000000200000000000000000800000000000002000000040000000008000000000000000000000000000040000000200000000000000000000000002000000000000000000000400000000000000000000000000000000000000000000000000000020000000000",
      "type": "0x2",
      "transactionHash": "0x7d6ca2736a2f0869b2b451d6eef89abe7a2b9b354da2ebc281e86a11f6b3a0ee",
      "transactionIndex": "0x0",
      "blockHash": "0xcff169b116c67a6f83f1aa4cc03c367ca93f2e41cbf56ba743ea4464e53f7c43",
      "blockNumber": "0x7",
      "gasUsed": "0x40456",
      "effectiveGasPrice": "0x1c3223f8",
      "blobGasPrice": "0x1",
      "from": "0xf39fd6e51aad88f6f4ce6ab8827279cfffb92266",
      "to": "0x5fbdb2315678afecb367f032d93f642f64180aa3",
      "contractAddress": null
    },
    {
      "status": "0x1",
      "cumulativeGasUsed": "0x3fb89",
      "logs": [
        {
          "address": "0x5fbdb2315678afecb367f032d93f642f64180aa3",
          "topics": [
            "0x63a6c54225ab867f091566413073a6f1614ac19637de731cb014261fea0556d7",
            "0xfb344b369177919bf009b37fca04be6391cc34ab93b8a182cf85e487c32fbb50",
            "0x00000000000000000000000070997970c51812dc3a010c7d01b50e0d17dc79c8"
          ],
          "data": "0x0000000000000000000000000000000000000000000000000000000001312d00000000000000000000000000000000000000000000000000000000000007a1200000000000000000000000000000000000000000000000000000000001298be0",
          "blockHash": "0x157023638ca1a2cd85dd851fc5705750dfa461bc451d798206ff426c4814e07d",
          "blockNumber": "0x8",
          "blockTimestamp": "0x69e7e410",
          "transactionHash": "0xe83987e3a07ea51735ee03238988793516910b90bc0140319f5833947b2e2297",
          "transactionIndex": "0x0",
          "logIndex": "0x0",
          "removed": false
        }
      ],
      "logsBloom": "0x00000000000000000002000008000000000000000000000000000000000000000000000000000000000000000000000000000000000000000000000000000000000000000000000000000000000000000000000000000000000000000000000000000840000000000000000000000000000000000000000000000000000000000000000000000000000000000000000000000000000000000000000200000000040000000000000000000000000000040000000008000000000000000000000000000040000000000000000000000000000000000000000000000000000000400020000000000000000000000000000001000000000000000000000000000000",
      "type": "0x2",
      "transactionHash": "0xe83987e3a07ea51735ee03238988793516910b90bc0140319f5833947b2e2297",
      "transactionIndex": "0x0",
      "blockHash": "0x157023638ca1a2cd85dd851fc5705750dfa461bc451d798206ff426c4814e07d",
      "blockNumber": "0x8",
      "gasUsed": "0x3fb89",
      "effectiveGasPrice": "0x18bbb53f",
      "blobGasPrice": "0x1",
      "from": "0x70997970c51812dc3a010c7d01b50e0d17dc79c8",
      "to": "0x5fbdb2315678afecb367f032d93f642f64180aa3",
      "contractAddress": null
    }
  ],
  "libraries": [],
  "pending": [],
  "returns": {},
  "timestamp": 1776804890039,
  "chain": 31337,
  "commit": null
}