{
  "transactions": [
    {
      "hash": "0xd818674a63e91db9dc8d985602845286cde7a2f3a27f328641c4cf9c7c5b2b45",
      "transactionType": "CALL",
      "contractName": null,
      "contractAddress": "0xa6be9abc6c407cfa2a9ce2f46759e49c45d34cce",
      "function": "mint(address,uint256)",
      "arguments": [
        "0xc7f16B436594ef356751C0094F5542162f040223",
        "10000000000000000"
      ],
      "transaction": {
        "from": "0xc7f16b436594ef356751c0094f5542162f040223",
        "to": "0xa6be9abc6c407cfa2a9ce2f46759e49c45d34cce",
        "gas": "0xb88b",
        "value": "0x0",
        "input": "0x40c10f19000000000000000000000000c7f16b436594ef356751c0094f5542162f040223000000000000000000000000000000000000000000000000002386f26fc10000",
        "nonce": "0x13",
        "chainId": "0xaa36a7"
      },
      "additionalContracts": [],
      "isFixedGasLimit": false
    },
    {
      "hash": "0xa97e84814b59641fa367c8c244f579a55fe5a87755a415a8e0d7676b98d3aefa",
      "transactionType": "CALL",
      "contractName": null,
      "contractAddress": "0xa6be9abc6c407cfa2a9ce2f46759e49c45d34cce",
      "function": "approve(address,uint256)",
      "arguments": [
        "0x1fD91229ee0217E9381d936Dc43d6E81283eD5c4",
        "10000000000000000"
      ],
      "transaction": {
        "from": "0xc7f16b436594ef356751c0094f5542162f040223",
        "to": "0xa6be9abc6c407cfa2a9ce2f46759e49c45d34cce",
        "gas": "0x108d1",
        "value": "0x0",
        "input": "0x095ea7b30000000000000000000000001fd91229ee0217e9381d936dc43d6e81283ed5c4000000000000000000000000000000000000000000000000002386f26fc10000",
        "nonce": "0x14",
        "chainId": "0xaa36a7"
      },
      "additionalContracts": [],
      "isFixedGasLimit": false
    },
    {
      "hash": "0xe9eda0d3540ab017beca84d52ca240dddf9c5e0e9c2e672ae8f1c01d5af332ee",
      "transactionType": "CALL",
      "contractName": "IntentAuction",
      "contractAddress": "0x1fd91229ee0217e9381d936dc43d6e81283ed5c4",
      "function": "postIntent((address,address,uint256,address,uint256,uint256,uint256,uint256,uint256),bytes)",
      "arguments": [
        "(0xc7f16B436594ef356751C0094F5542162f040223, 0xA6bE9ABc6C407cfA2a9Ce2F46759e49C45D34cCe, 10000000000000000, 0x4b0Cb1f10c19a839b4fF5a7d5dF981367eB998E8, 19000000, 1000000, 12, 0, 1776811428)",
        "0x62124dc15b80f480f92571edca722b3868f750122c01b1ffe859bb7e33922ded2ef7629b98cd3ef8618b2aa397e630727dc7a653e74012c166d86f0e4470fc911b"
      ],
      "transaction": {
        "from": "0xc7f16b436594ef356751c0094f5542162f040223",
        "to": "0x1fd91229ee0217e9381d936dc43d6e81283ed5c4",
        "gas": "0x58c63",
        "value": "0x0",
        "input": "0x1e18f8ce000000000000000000000000c7f16b436594ef356751c0094f5542162f040223000000000000000000000000a6be9abc6c407cfa2a9ce2f46759e49c45d34cce000000000000000000000000000000000000000000000000002386f26fc100000000000000000000000000004b0cb1f10c19a839b4ff5a7d5df981367eb998e8000000000000000000000000000000000000000000000000000000000121eac000000000000000000000000000000000000000000000000000000000000f4240000000000000000000000000000000000000000000000000000000000000000c00000000000000000000000000000000000000000000000000000000000000000000000000000000000000000000000000000000000000000000000069e7fda40000000000000000000000000000000000000000000000000000000000000140000000000000000000000000000000000000000000000000000000000000004162124dc15b80f480f92571edca722b3868f750122c01b1ffe859bb7e33922ded2ef7629b98cd3ef8618b2aa397e630727dc7a653e74012c166d86f0e4470fc911b00000000000000000000000000000000000000000000000000000000000000",
        "nonce": "0x15",
        "chainId": "0xaa36a7"
      },
      "additionalContracts": [],
      "isFixedGasLimit": false
    },
    {
      "hash": "0xbdc28f359bb25582b05c31fbc445beb1e048ecdb98c274efb37fc3807d8b7cc5",
      "transactionType": "CALL",
      "contractName": "IntentAuction",
      "contractAddress": "0x1fd91229ee0217e9381d936dc43d6e81283ed5c4",
      "function": "bidOnIntent(bytes32,uint256,uint256,address,bytes)",
      "arguments": [
        "0x702afd595cf84bbae80993f49acd56d8c46155503ba6f66b9e1f1bc46bb1fd2f",
        "20000000",
        "500000",
        "0x47aC33d3fa3878b3664ac14b9fd8acEb9e17D2a0",
        "0x6e81221c000000000000000000000000a6be9abc6c407cfa2a9ce2f46759e49c45d34cce0000000000000000000000004b0cb1f10c19a839b4ff5a7d5df981367eb998e8000000000000000000000000000000000000000000000000002386f26fc10000000000000000000000000000cbad72506bfec87b5e1d575e65142c71051129b0"
      ],
      "transaction": {
        "from": "0xc7f16b436594ef356751c0094f5542162f040223",
        "to": "0x1fd91229ee0217e9381d936dc43d6e81283ed5c4",
        "gas": "0x5804b",
        "value": "0x0",
        "input": "0x19f62691702afd595cf84bbae80993f49acd56d8c46155503ba6f66b9e1f1bc46bb1fd2f0000000000000000000000000000000000000000000000000000000001312d00000000000000000000000000000000000000000000000000000000000007a12000000000000000000000000047ac33d3fa3878b3664ac14b9fd8aceb9e17d2a000000000000000000000000000000000000000000000000000000000000000a000000000000000000000000000000000000000000000000000000000000000846e81221c000000000000000000000000a6be9abc6c407cfa2a9ce2f46759e49c45d34cce0000000000000000000000004b0cb1f10c19a839b4ff5a7d5df981367eb998e8000000000000000000000000000000000000000000000000002386f26fc10000000000000000000000000000cbad72506bfec87b5e1d575e65142c71051129b000000000000000000000000000000000000000000000000000000000",
        "nonce": "0x16",
        "chainId": "0xaa36a7"
      },
      "additionalContracts": [],
      "isFixedGasLimit": false
    }
  ],
  "receipts": [
    {
      "status": "0x1",
      "cumulativeGasUsed": "0x1d4c32a",
      "logs": [
        {
          "address": "0xa6be9abc6c407cfa2a9ce2f46759e49c45d34cce",
          "topics": [
            "0xddf252ad1be2c89b69c2b068fc378daa952ba7f163c4a11628f55a4df523b3ef",
            "0x0000000000000000000000000000000000000000000000000000000000000000",
            "0x000000000000000000000000c7f16b436594ef356751c0094f5542162f040223"
          ],
          "data": "0x000000000000000000000000000000000000000000000000002386f26fc10000",
          "blockHash": "0xb6b463fa0eb152d7f50cf34e7ee77e5724e60b33698eb7ba9401ad6fc68261e9",
          "blockNumber": "0xa35c98",
          "blockTimestamp": "0x69e7efac",
          "transactionHash": "0xd818674a63e91db9dc8d985602845286cde7a2f3a27f328641c4cf9c7c5b2b45",
          "transactionIndex": "0x50",
          "logIndex": "0x760",
          "removed": false
        }
      ],
      "logsBloom": "0x00000000000000000000000000000000000000000000000000000000000000000000000000000000000000000000000000000008000000000000000000000000000400010000000000000008000000000000000020000000000000000000000000000000020001000000000000000800000000000000000000000010000000000000000000000000000000000000000000000000000000000000000000000000000000000000000000000000000000000000000000000000000000000000000000000002000000000000000000000040000000000000000000000000000020000000000000000000000000000000000000000000000000000000000000000000",
      "type": "0x2",
      "transactionHash": "0xd818674a63e91db9dc8d985602845286cde7a2f3a27f328641c4cf9c7c5b2b45",
      "transactionIndex": "0x50",
      "blockHash": "0xb6b463fa0eb152d7f50cf34e7ee77e5724e60b33698eb7ba9401ad6fc68261e9",
      "blockNumber": "0xa35c98",
      "gasUsed": "0x859c",
      "effectiveGasPrice": "0x10489c80",
      "from": "0xc7f16b436594ef356751c0094f5542162f040223",
      "to": "0xa6be9abc6c407cfa2a9ce2f46759e49c45d34cce",
      "contractAddress": null
    },
    {
      "status": "0x1",
      "cumulativeGasUsed": "0xe941b2",
      "logs": [
        {
          "address": "0xa6be9abc6c407cfa2a9ce2f46759e49c45d34cce",
          "topics": [
            "0x8c5be1e5ebec7d5bd14f71427d1e84f3dd0314c0f7b2291e5b200ac8c7c3b925",
            "0x000000000000000000000000c7f16b436594ef356751c0094f5542162f040223",
            "0x0000000000000000000000001fd91229ee0217e9381d936dc43d6e81283ed5c4"
          ],
          "data": "0x000000000000000000000000000000000000000000000000002386f26fc10000",
          "blockHash": "0x6231bfa7c68699cebcb54ddd341a6582e292dc3a6211f9e95a3462ef4460f195",
          "blockNumber": "0xa35c99",
          "blockTimestamp": "0x69e7efb8",
          "transactionHash": "0xa97e84814b59641fa367c8c244f579a55fe5a87755a415a8e0d7676b98d3aefa",
          "transactionIndex": "0x3e",
          "logIndex": "0x321",
          "removed": false
        }
      ],
      "logsBloom": "0x00000000000000000000000000000000000000000000000000000000000000000000000000000000000000000000000000000008000000000000000000200000000400010000000000000000000000000000000020000000000000004000000000000000000001000000000000000000000000400000000000000000000000000000000000000000000000000000000000000000000000000000000000000000020000000000000000000000000000000000000000000000000000000000000000000000000000000000000000000040000010000000000000000000000000000010000000000000000000000000000000000000000000000000000000000000",
      "type": "0x2",
      "transactionHash": "0xa97e84814b59641fa367c8c244f579a55fe5a87755a415a8e0d7676b98d3aefa",
      "transactionIndex": "0x3e",
      "blockHash": "0x6231bfa7c68699cebcb54ddd341a6582e292dc3a6211f9e95a3462ef4460f195",
      "blockNumber": "0xa35c99",
      "gasUsed": "0xb513",
      "effectiveGasPrice": "0x10f6523e",
      "from": "0xc7f16b436594ef356751c0094f5542162f040223",
      "to": "0xa6be9abc6c407cfa2a9ce2f46759e49c45d34cce",
      "contractAddress": null
    },
    {
      "status": "0x1",
      "cumulativeGasUsed": "0x1b38185",
      "logs": [
        {
          "address": "0x1fd91229ee0217e9381d936dc43d6e81283ed5c4",
          "topics": [
            "0xe8a5f0d309e9a941e4ca691c6fed8afbfa8a437c3ecedb6f7dda5a897ec2ecdb",
            "0x702afd595cf84bbae80993f49acd56d8c46155503ba6f66b9e1f1bc46bb1fd2f",
            "0x000000000000000000000000c7f16b436594ef356751c0094f5542162f040223",
            "0x000000000000000000000000a6be9abc6c407cfa2a9ce2f46759e49c45d34cce"
          ],
          "data": "0x0000000000000000000000004b0cb1f10c19a839b4ff5a7d5df981367eb998e8000000000000000000000000000000000000000000000000002386f26fc10000000000000000000000000000000000000000000000000000000000000121eac00000000000000000000000000000000000000000000000000000000000a35ca6",
          "blockHash": "0x869e6fc36b09225a403a988bb90589d6ed3a99df1ea03dfcdc45e1ac75b2a8a3",
          "blockNumber": "0xa35c9a",
          "blockTimestamp": "0x69e7efc4",
          "transactionHash": "0xe9eda0d3540ab017beca84d52ca240dddf9c5e0e9c2e672ae8f1c01d5af332ee",
          "transactionIndex": "0x46",
          "logIndex": "0x713",
          "removed": false
        }
      ],
      "logsBloom": "0x00000000000000000000000000000000000000000000000000000000000000000000000000000000000000000001000100000000000000200000000000000002000420010000000000000400000000000000000000000000000000000000000000000000000800000000001000000000000000000000000000000000000000000000000000000000000000000000000000000000000100000000000000000000000000000800000000004000000000000000000000000000000000000000000000000000000000000000000000000040000000000000000000000000000000000000000000000000000000000000000000000000000000000000020000000000",
      "type": "0x2",
      "transactionHash": "0xe9eda0d3540ab017beca84d52ca240dddf9c5e0e9c2e672ae8f1c01d5af332ee",
      "transactionIndex": "0x46",
      "blockHash": "0x869e6fc36b09225a403a988bb90589d6ed3a99df1ea03dfcdc45e1ac75b2a8a3",
      "blockNumber": "0xa35c9a",
      "gasUsed": "0x40456",
      "effectiveGasPrice": "0x1084b699",
      "from": "0xc7f16b436594ef356751c0094f5542162f040223",
      "to": "0x1fd91229ee0217e9381d936dc43d6e81283ed5c4",
      "contractAddress": null
    },
    {
      "status": "0x1",
      "cumulativeGasUsed": "0x1905204",
      "logs": [
        {
          "address": "0x1fd91229ee0217e9381d936dc43d6e81283ed5c4",
          "topics": [
            "0x63a6c54225ab867f091566413073a6f1614ac19637de731cb014261fea0556d7",
            "0x702afd595cf84bbae80993f49acd56d8c46155503ba6f66b9e1f1bc46bb1fd2f",
            "0x000000000000000000000000c7f16b436594ef356751c0094f5542162f040223"
          ],
          "data": "0x0000000000000000000000000000000000000000000000000000000001312d00000000000000000000000000000000000000000000000000000000000007a1200000000000000000000000000000000000000000000000000000000001298be0",
          "blockHash": "0xbe5b97e42a246ba6d7f91460da92ff56b174e04265a86623dfbcd9737c97ecea",
          "blockNumber": "0xa35c9b",
          "blockTimestamp": "0x69e7efd0",
          "transactionHash": "0xbdc28f359bb25582b05c31fbc445beb1e048ecdb98c274efb37fc3807d8b7cc5",
          "transactionIndex": "0x48",
          "logIndex": "0x51a",
          "removed": false
        }
      ],
      "logsBloom": "0x00000000000000000000000008000000000000000000000000000000000000000000000000000000000000000001000100000000000000200000000000000000000400010000000000000000000000000000000000000000000000000000000000000000000000000000001000000000000000000000000000000000000000000000000000000000000000000000000000000000000100000000000000000000040000000000000000004000000000000000000000000000000000000000000000000000000000000000000000000040000000000000000000000000000000000020000000000000000000000000000000000000000000000000000000000000",
      "type": "0x2",
      "transactionHash": "0xbdc28f359bb25582b05c31fbc445beb1e048ecdb98c274efb37fc3807d8b7cc5",
      "transactionIndex": "0x48",
      "blockHash": "0xbe5b97e42a246ba6d7f91460da92ff56b174e04265a86623dfbcd9737c97ecea",
      "blockNumber": "0xa35c9b",
      "gasUsed": "0x3fb95",
      "effectiveGasPrice": "0x10d3c9c2",
      "from": "0xc7f16b436594ef356751c0094f5542162f040223",
      "to": "0x1fd91229ee0217e9381d936dc43d6e81283ed5c4",
      "contractAddress": null
    }
  ],
  "libraries": [],
  "pending": [],
  "returns": {},
  "timestamp": 1776807888281,
  "chain": 11155111,
  "commit": null
}